{
  "contractName": "UMi721",
  "abi": [
    {
      "inputs": [
        {
          "internalType": "string",
          "name": "_name",
          "type": "string"
        },
        {
          "internalType": "string",
          "name": "_ticker",
          "type": "string"
        },
        {
          "internalType": "string",
          "name": "_contract_ipfs",
          "type": "string"
        },
        {
          "internalType": "bool",
          "name": "_mintingEnabled",
          "type": "bool"
        },
        {
          "internalType": "bool",
          "name": "_proxyEnabled",
          "type": "bool"
        },
        {
          "internalType": "bool",
          "name": "_burningEnabled",
          "type": "bool"
        },
        {
          "internalType": "bool",
          "name": "_redeemEnabled",
          "type": "bool"
        },
        {
          "internalType": "bool",
          "name": "_dynamicEnabled",
          "type": "bool"
        },
        {
          "internalType": "string",
          "name": "_base_uri",
          "type": "string"
        },
        {
          "internalType": "uint256",
          "name": "_hard_cap",
          "type": "uint256"
        }
      ],
      "stateMutability": "nonpayable",
      "type": "constructor"
    },
    {
      "anonymous": false,
      "inputs": [
        {
          "indexed": true,
          "internalType": "address",
          "name": "owner",
          "type": "address"
        },
        {
          "indexed": true,
          "internalType": "address",
          "name": "approved",
          "type": "address"
        },
        {
          "indexed": true,
          "internalType": "uint256",
          "name": "tokenId",
          "type": "uint256"
        }
      ],
      "name": "Approval",
      "type": "event"
    },
    {
      "anonymous": false,
      "inputs": [
        {
          "indexed": true,
          "internalType": "address",
          "name": "owner",
          "type": "address"
        },
        {
          "indexed": true,
          "internalType": "address",
          "name": "operator",
          "type": "address"
        },
        {
          "indexed": false,
          "internalType": "bool",
          "name": "approved",
          "type": "bool"
        }
      ],
      "name": "ApprovalForAll",
      "type": "event"
    },
    {
      "anonymous": false,
      "inputs": [
        {
          "indexed": true,
          "internalType": "uint256",
          "name": "tokenId",
          "type": "uint256"
        }
      ],
      "name": "Minted",
      "type": "event"
    },
    {
      "anonymous": false,
      "inputs": [
        {
          "indexed": true,
          "internalType": "address",
          "name": "previousOwner",
          "type": "address"
        },
        {
          "indexed": true,
          "internalType": "address",
          "name": "newOwner",
          "type": "address"
        }
      ],
      "name": "OwnershipTransferred",
      "type": "event"
    },
    {
      "anonymous": false,
      "inputs": [
        {
          "indexed": true,
          "internalType": "address",
          "name": "from",
          "type": "address"
        },
        {
          "indexed": true,
          "internalType": "address",
          "name": "to",
          "type": "address"
        },
        {
          "indexed": true,
          "internalType": "uint256",
          "name": "tokenId",
          "type": "uint256"
        }
      ],
      "name": "Transfer",
      "type": "event"
    },
    {
      "inputs": [
        {
          "internalType": "address",
          "name": "to",
          "type": "address"
        },
        {
          "internalType": "uint256",
          "name": "tokenId",
          "type": "uint256"
        }
      ],
      "name": "approve",
      "outputs": [],
      "stateMutability": "nonpayable",
      "type": "function"
    },
    {
      "inputs": [
        {
          "internalType": "address",
          "name": "owner",
          "type": "address"
        }
      ],
      "name": "balanceOf",
      "outputs": [
        {
          "internalType": "uint256",
          "name": "",
          "type": "uint256"
        }
      ],
      "stateMutability": "view",
      "type": "function",
      "constant": true
    },
    {
      "inputs": [
        {
          "internalType": "uint256",
          "name": "tokenId",
          "type": "uint256"
        }
      ],
      "name": "burn",
      "outputs": [],
      "stateMutability": "nonpayable",
      "type": "function"
    },
    {
      "inputs": [],
      "name": "burningEnabled",
      "outputs": [
        {
          "internalType": "bool",
          "name": "",
          "type": "bool"
        }
      ],
      "stateMutability": "view",
      "type": "function",
      "constant": true
    },
    {
      "inputs": [],
      "name": "contract_ipfs_json",
      "outputs": [
        {
          "internalType": "string",
          "name": "",
          "type": "string"
        }
      ],
      "stateMutability": "view",
      "type": "function",
      "constant": true
    },
    {
      "inputs": [],
      "name": "dynamicEnabled",
      "outputs": [
        {
          "internalType": "bool",
          "name": "",
          "type": "bool"
        }
      ],
      "stateMutability": "view",
      "type": "function",
      "constant": true
    },
    {
      "inputs": [
        {
          "internalType": "uint256",
          "name": "tokenId",
          "type": "uint256"
        }
      ],
      "name": "getApproved",
      "outputs": [
        {
          "internalType": "address",
          "name": "",
          "type": "address"
        }
      ],
      "stateMutability": "view",
      "type": "function",
      "constant": true
    },
    {
      "inputs": [],
      "name": "mintingEnabled",
      "outputs": [
        {
          "internalType": "bool",
          "name": "",
          "type": "bool"
        }
      ],
      "stateMutability": "view",
      "type": "function",
      "constant": true
    },
    {
      "inputs": [],
      "name": "name",
      "outputs": [
        {
          "internalType": "string",
          "name": "",
          "type": "string"
        }
      ],
      "stateMutability": "view",
      "type": "function",
      "constant": true
    },
    {
      "inputs": [],
      "name": "owner",
      "outputs": [
        {
          "internalType": "address",
          "name": "",
          "type": "address"
        }
      ],
      "stateMutability": "view",
      "type": "function",
      "constant": true
    },
    {
      "inputs": [
        {
          "internalType": "uint256",
          "name": "tokenId",
          "type": "uint256"
        }
      ],
      "name": "ownerOf",
      "outputs": [
        {
          "internalType": "address",
          "name": "",
          "type": "address"
        }
      ],
      "stateMutability": "view",
      "type": "function",
      "constant": true
    },
    {
      "inputs": [],
      "name": "proxyEnabled",
      "outputs": [
        {
          "internalType": "bool",
          "name": "",
          "type": "bool"
        }
      ],
      "stateMutability": "view",
      "type": "function",
      "constant": true
    },
    {
      "inputs": [],
      "name": "redeemEnabled",
      "outputs": [
        {
          "internalType": "bool",
          "name": "",
          "type": "bool"
        }
      ],
      "stateMutability": "view",
      "type": "function",
      "constant": true
    },
    {
      "inputs": [],
      "name": "renounceOwnership",
      "outputs": [],
      "stateMutability": "nonpayable",
      "type": "function"
    },
    {
      "inputs": [
        {
          "internalType": "address",
          "name": "from",
          "type": "address"
        },
        {
          "internalType": "address",
          "name": "to",
          "type": "address"
        },
        {
          "internalType": "uint256",
          "name": "tokenId",
          "type": "uint256"
        }
      ],
      "name": "safeTransferFrom",
      "outputs": [],
      "stateMutability": "nonpayable",
      "type": "function"
    },
    {
      "inputs": [
        {
          "internalType": "address",
          "name": "from",
          "type": "address"
        },
        {
          "internalType": "address",
          "name": "to",
          "type": "address"
        },
        {
          "internalType": "uint256",
          "name": "tokenId",
          "type": "uint256"
        },
        {
          "internalType": "bytes",
          "name": "_data",
          "type": "bytes"
        }
      ],
      "name": "safeTransferFrom",
      "outputs": [],
      "stateMutability": "nonpayable",
      "type": "function"
    },
    {
      "inputs": [
        {
          "internalType": "address",
          "name": "operator",
          "type": "address"
        },
        {
          "internalType": "bool",
          "name": "approved",
          "type": "bool"
        }
      ],
      "name": "setApprovalForAll",
      "outputs": [],
      "stateMutability": "nonpayable",
      "type": "function"
    },
    {
      "inputs": [
        {
          "internalType": "bytes4",
          "name": "interfaceId",
          "type": "bytes4"
        }
      ],
      "name": "supportsInterface",
      "outputs": [
        {
          "internalType": "bool",
          "name": "",
          "type": "bool"
        }
      ],
      "stateMutability": "view",
      "type": "function",
      "constant": true
    },
    {
      "inputs": [],
      "name": "symbol",
      "outputs": [
        {
          "internalType": "string",
          "name": "",
          "type": "string"
        }
      ],
      "stateMutability": "view",
      "type": "function",
      "constant": true
    },
    {
      "inputs": [
        {
          "internalType": "address",
          "name": "from",
          "type": "address"
        },
        {
          "internalType": "address",
          "name": "to",
          "type": "address"
        },
        {
          "internalType": "uint256",
          "name": "tokenId",
          "type": "uint256"
        }
      ],
      "name": "transferFrom",
      "outputs": [],
      "stateMutability": "nonpayable",
      "type": "function"
    },
    {
      "inputs": [
        {
          "internalType": "address",
          "name": "newOwner",
          "type": "address"
        }
      ],
      "name": "transferOwnership",
      "outputs": [],
      "stateMutability": "nonpayable",
      "type": "function"
    },
    {
      "inputs": [
        {
          "internalType": "address",
          "name": "_owner",
          "type": "address"
        }
      ],
      "name": "tokensOfOwner",
      "outputs": [
        {
          "internalType": "uint256[]",
          "name": "ownerTokens",
          "type": "uint256[]"
        }
      ],
      "stateMutability": "view",
      "type": "function",
      "constant": true
    },
    {
      "inputs": [
        {
          "internalType": "uint256",
          "name": "_tokenId",
          "type": "uint256"
        }
      ],
      "name": "tokenURI",
      "outputs": [
        {
          "internalType": "string",
          "name": "",
          "type": "string"
        }
      ],
      "stateMutability": "view",
      "type": "function",
      "constant": true
    },
    {
      "inputs": [],
      "name": "contractURI",
      "outputs": [
        {
          "internalType": "string",
          "name": "",
          "type": "string"
        }
      ],
      "stateMutability": "view",
      "type": "function",
      "constant": true
    },
    {
      "inputs": [
        {
          "internalType": "string",
          "name": "tokenHash",
          "type": "string"
        }
      ],
      "name": "nftExists",
      "outputs": [
        {
          "internalType": "bool",
          "name": "",
          "type": "bool"
        }
      ],
      "stateMutability": "view",
      "type": "function",
      "constant": true
    },
    {
      "inputs": [
        {
          "internalType": "string",
          "name": "tokenHash",
          "type": "string"
        }
      ],
      "name": "returnTokenIdByHash",
      "outputs": [
        {
          "internalType": "uint256",
          "name": "",
          "type": "uint256"
        }
      ],
      "stateMutability": "view",
      "type": "function",
      "constant": true
    },
    {
      "inputs": [
        {
          "internalType": "uint256",
          "name": "tokenId",
          "type": "uint256"
        }
      ],
      "name": "returnTokenURI",
      "outputs": [
        {
          "internalType": "string",
          "name": "",
          "type": "string"
        }
      ],
      "stateMutability": "view",
      "type": "function",
      "constant": true
    },
    {
      "inputs": [
        {
          "internalType": "string",
          "name": "hash",
          "type": "string"
        }
      ],
      "name": "returnCreatorByNftHash",
      "outputs": [
        {
          "internalType": "address",
          "name": "",
          "type": "address"
        }
      ],
      "stateMutability": "view",
      "type": "function",
      "constant": true
    },
    {
      "inputs": [],
      "name": "totalSupply",
      "outputs": [
        {
          "internalType": "uint256",
          "name": "",
          "type": "uint256"
        }
      ],
      "stateMutability": "view",
      "type": "function",
      "constant": true
    },
    {
      "inputs": [
        {
          "internalType": "address",
          "name": "_address",
          "type": "address"
        }
      ],
      "name": "isProxy",
      "outputs": [
        {
          "internalType": "bool",
          "name": "",
          "type": "bool"
        }
      ],
      "stateMutability": "view",
      "type": "function",
      "constant": true
    },
    {
      "inputs": [
        {
          "internalType": "address",
          "name": "_address",
          "type": "address"
        }
      ],
      "name": "isMinter",
      "outputs": [
        {
          "internalType": "bool",
          "name": "",
          "type": "bool"
        }
      ],
      "stateMutability": "view",
      "type": "function",
      "constant": true
    },
    {
      "inputs": [
        {
          "internalType": "string",
          "name": "_tokenURI",
          "type": "string"
        }
      ],
      "name": "isRedeemed",
      "outputs": [
        {
          "internalType": "bool",
          "name": "",
          "type": "bool"
        }
      ],
      "stateMutability": "view",
      "type": "function",
      "constant": true
    },
    {
      "inputs": [
        {
          "internalType": "address",
          "name": "from",
          "type": "address"
        },
        {
          "internalType": "address",
          "name": "to",
          "type": "address"
        },
        {
          "internalType": "string",
          "name": "_tokenURI",
          "type": "string"
        }
      ],
      "name": "dropNFT",
      "outputs": [],
      "stateMutability": "nonpayable",
      "type": "function"
    },
    {
      "inputs": [
        {
          "internalType": "address",
          "name": "_to",
          "type": "address"
        },
        {
          "internalType": "string",
          "name": "_tokenURI",
          "type": "string"
        }
      ],
      "name": "mintNFT",
      "outputs": [],
      "stateMutability": "nonpayable",
      "type": "function"
    },
    {
      "inputs": [
        {
          "internalType": "uint256",
          "name": "_tokenId",
          "type": "uint256"
        },
        {
          "internalType": "string",
          "name": "_tokenURI",
          "type": "string"
        }
      ],
      "name": "fixNFT",
      "outputs": [],
      "stateMutability": "nonpayable",
      "type": "function"
    },
    {
      "inputs": [
        {
          "internalType": "string",
          "name": "_tokenURI",
          "type": "string"
        }
      ],
      "name": "redeemNFT",
      "outputs": [],
      "stateMutability": "nonpayable",
      "type": "function"
    },
    {
      "inputs": [],
      "name": "enableProxy",
      "outputs": [],
      "stateMutability": "nonpayable",
      "type": "function"
    },
    {
      "inputs": [],
      "name": "disableProxy",
      "outputs": [],
      "stateMutability": "nonpayable",
      "type": "function"
    },
    {
      "inputs": [],
      "name": "enableRedeem",
      "outputs": [],
      "stateMutability": "nonpayable",
      "type": "function"
    },
    {
      "inputs": [],
      "name": "disableRedeem",
      "outputs": [],
      "stateMutability": "nonpayable",
      "type": "function"
    },
    {
      "inputs": [],
      "name": "enableMinting",
      "outputs": [],
      "stateMutability": "nonpayable",
      "type": "function"
    },
    {
      "inputs": [],
      "name": "disableMinting",
      "outputs": [],
      "stateMutability": "nonpayable",
      "type": "function"
    },
    {
      "inputs": [],
      "name": "enableBurning",
      "outputs": [],
      "stateMutability": "nonpayable",
      "type": "function"
    },
    {
      "inputs": [],
      "name": "disableBurning",
      "outputs": [],
      "stateMutability": "nonpayable",
      "type": "function"
    },
    {
      "inputs": [],
      "name": "enableDynamic",
      "outputs": [],
      "stateMutability": "nonpayable",
      "type": "function"
    },
    {
      "inputs": [],
      "name": "disableDynamic",
      "outputs": [],
      "stateMutability": "nonpayable",
      "type": "function"
    },
    {
      "inputs": [
        {
          "internalType": "address",
          "name": "_address",
          "type": "address"
        }
      ],
      "name": "addMinter",
      "outputs": [],
      "stateMutability": "nonpayable",
      "type": "function"
    },
    {
      "inputs": [
        {
          "internalType": "address",
          "name": "_address",
          "type": "address"
        }
      ],
      "name": "removeMinter",
      "outputs": [],
      "stateMutability": "nonpayable",
      "type": "function"
    },
    {
      "inputs": [
        {
          "internalType": "address",
          "name": "_address",
          "type": "address"
        }
      ],
      "name": "addProxy",
      "outputs": [],
      "stateMutability": "nonpayable",
      "type": "function"
    },
    {
      "inputs": [
        {
          "internalType": "address",
          "name": "_address",
          "type": "address"
        }
      ],
      "name": "removeProxy",
      "outputs": [],
      "stateMutability": "nonpayable",
      "type": "function"
    },
    {
      "inputs": [
        {
          "internalType": "string",
          "name": "_newDescription",
          "type": "string"
        }
      ],
      "name": "fixContractDescription",
      "outputs": [],
      "stateMutability": "nonpayable",
      "type": "function"
    },
    {
      "inputs": [
        {
          "internalType": "string",
          "name": "_newURI",
          "type": "string"
        }
      ],
      "name": "fixBaseURI",
      "outputs": [],
      "stateMutability": "nonpayable",
      "type": "function"
    },
    {
      "inputs": [
        {
          "internalType": "address",
          "name": "_owner",
          "type": "address"
        },
        {
          "internalType": "address",
          "name": "_operator",
          "type": "address"
        }
      ],
      "name": "isApprovedForAll",
      "outputs": [
        {
          "internalType": "bool",
          "name": "isOperator",
          "type": "bool"
        }
      ],
      "stateMutability": "view",
      "type": "function",
      "constant": true
    }
  ],
  "bytecode": "0x60806040526000600f60006101000a81548160ff0219169083151502179055506000600f60016101000a81548160ff0219169083151502179055506000600f60026101000a81548160ff0219169083151502179055506000600f60036101000a81548160ff0219169083151502179055506000600f60046101000a81548160ff02191690831515021790555060006010553480156200009d57600080fd5b50604051620062dd380380620062dd8339818101604052810190620000c391906200040e565b89898160009080519060200190620000dd929190620002b2565b508060019080519060200190620000f6929190620002b2565b505050620001196200010d620001e460201b60201c565b620001ec60201b60201c565b87600e908051906020019062000131929190620002b2565b5086600f60006101000a81548160ff02191690831515021790555085600f60016101000a81548160ff02191690831515021790555084600f60026101000a81548160ff02191690831515021790555083600f60036101000a81548160ff02191690831515021790555082600f60046101000a81548160ff0219169083151502179055508160119080519060200190620001cc929190620002b2565b5080601081905550505050505050505050506200074e565b600033905090565b6000600760009054906101000a900473ffffffffffffffffffffffffffffffffffffffff16905081600760006101000a81548173ffffffffffffffffffffffffffffffffffffffff021916908373ffffffffffffffffffffffffffffffffffffffff1602179055508173ffffffffffffffffffffffffffffffffffffffff168173ffffffffffffffffffffffffffffffffffffffff167f8be0079c531659141344cd1fd0a4f28419497f9722a3daafe3b4186f6b6457e060405160405180910390a35050565b828054620002c0906200062b565b90600052602060002090601f016020900481019282620002e4576000855562000330565b82601f10620002ff57805160ff191683800117855562000330565b8280016001018555821562000330579182015b828111156200032f57825182559160200191906001019062000312565b5b5090506200033f919062000343565b5090565b5b808211156200035e57600081600090555060010162000344565b5090565b6000620003796200037384620005a9565b62000580565b905082815260208101848484011115620003985762000397620006fa565b5b620003a5848285620005f5565b509392505050565b600081519050620003be816200071a565b92915050565b600082601f830112620003dc57620003db620006f5565b5b8151620003ee84826020860162000362565b91505092915050565b600081519050620004088162000734565b92915050565b6000806000806000806000806000806101408b8d03121562000435576200043462000704565b5b60008b015167ffffffffffffffff811115620004565762000455620006ff565b5b620004648d828e01620003c4565b9a505060208b015167ffffffffffffffff811115620004885762000487620006ff565b5b620004968d828e01620003c4565b99505060408b015167ffffffffffffffff811115620004ba57620004b9620006ff565b5b620004c88d828e01620003c4565b9850506060620004db8d828e01620003ad565b9750506080620004ee8d828e01620003ad565b96505060a0620005018d828e01620003ad565b95505060c0620005148d828e01620003ad565b94505060e0620005278d828e01620003ad565b9350506101008b015167ffffffffffffffff8111156200054c576200054b620006ff565b5b6200055a8d828e01620003c4565b9250506101206200056e8d828e01620003f7565b9150509295989b9194979a5092959850565b60006200058c6200059f565b90506200059a828262000661565b919050565b6000604051905090565b600067ffffffffffffffff821115620005c757620005c6620006c6565b5b620005d28262000709565b9050602081019050919050565b60008115159050919050565b6000819050919050565b60005b8381101562000615578082015181840152602081019050620005f8565b8381111562000625576000848401525b50505050565b600060028204905060018216806200064457607f821691505b602082108114156200065b576200065a62000697565b5b50919050565b6200066c8262000709565b810181811067ffffffffffffffff821117156200068e576200068d620006c6565b5b80604052505050565b7f4e487b7100000000000000000000000000000000000000000000000000000000600052602260045260246000fd5b7f4e487b7100000000000000000000000000000000000000000000000000000000600052604160045260246000fd5b600080fd5b600080fd5b600080fd5b600080fd5b6000601f19601f8301169050919050565b6200072581620005df565b81146200073157600080fd5b50565b6200073f81620005eb565b81146200074b57600080fd5b50565b615b7f806200075e6000396000f3fe608060405234801561001057600080fd5b50600436106103275760003560e01c8063715018a6116101b8578063b579496a11610104578063d2f82536116100a2578063e985e9c51161007c578063e985e9c5146108ee578063eacabe141461091e578063f0e63ac11461093a578063f2fde38b1461094457610327565b8063d2f82536146108a8578063e797ec1b146108c6578063e8a3d485146108d057610327565b8063be116c3b116100de578063be116c3b14610822578063c87b56dd1461083e578063cd82a4b61461086e578063d2eeb0d71461088c57610327565b8063b579496a146107f2578063b59ca799146107fc578063b88d4fde1461080657610327565b806395d89b41116101715780639f1f7f2c1161014b5780639f1f7f2c1461076c5780639fd6db1214610788578063a22cb465146107a6578063aa271e1a146107c257610327565b806395d89b4114610728578063983b2d561461074657806398603cca1461076257610327565b8063715018a6146106b25780637581a8e6146106bc5780637e5cd5c1146106c65780638462151c146106d057806387115b07146107005780638da5cb5b1461070a57610327565b806323b872dd116102775780634d754715116102305780635a782c341161020a5780635a782c34146106045780636352211e1461062257806365c4b8fd1461065257806370a082311461068257610327565b80634d754715146105ac5780635018c97e146105ca57806350c4684f146105fa57610327565b806323b872dd146104dc57806329710388146104f85780633092afd514610528578063354470191461054457806342842e0e1461057457806342966c681461059057610327565b8063095ea7b3116102e457806318160ddd116102be57806318160ddd1461046a5780631a4fba6c14610488578063211eb07d146104a457806323b11d8d146104c057610327565b8063095ea7b3146103ee5780630c008af61461040a578063123bfbb41461043a57610327565b806301ffc9a71461032c5780630346f18f1461035c578063061873e81461037a57806306fdde0314610384578063081812fc146103a257806308a9d398146103d2575b600080fd5b61034660048036038101906103419190614309565b610960565b6040516103539190614a8b565b60405180910390f35b610364610a42565b6040516103719190614aa6565b60405180910390f35b610382610ad0565b005b61038c610b69565b6040516103999190614aa6565b60405180910390f35b6103bc60048036038101906103b791906143ac565b610bfb565b6040516103c99190614a02565b60405180910390f35b6103ec60048036038101906103e79190614363565b610c80565b005b610408600480360381019061040391906142c9565b610e70565b005b610424600480360381019061041f9190614363565b610f88565b6040516104319190614a02565b60405180910390f35b610454600480360381019061044f91906143ac565b610fd0565b6040516104619190614aa6565b60405180910390f35b610472611075565b60405161047f9190614ea8565b60405180910390f35b6104a2600480360381019061049d9190614363565b611086565b005b6104be60048036038101906104b99190614363565b61111c565b005b6104da60048036038101906104d5919061407b565b6111b2565b005b6104f660048036038101906104f19190614157565b611289565b005b610512600480360381019061050d919061407b565b6112e9565b60405161051f9190614a8b565b60405180910390f35b610542600480360381019061053d919061407b565b61133f565b005b61055e60048036038101906105599190614363565b611416565b60405161056b9190614ea8565b60405180910390f35b61058e60048036038101906105899190614157565b61143e565b005b6105aa60048036038101906105a591906143ac565b61145e565b005b6105b46114ba565b6040516105c19190614a8b565b60405180910390f35b6105e460048036038101906105df9190614363565b6114cd565b6040516105f19190614a8b565b60405180910390f35b610602611544565b005b61060c6115dd565b6040516106199190614a8b565b60405180910390f35b61063c600480360381019061063791906143ac565b6115f0565b6040516106499190614a02565b60405180910390f35b61066c60048036038101906106679190614363565b6116a2565b6040516106799190614a8b565b60405180910390f35b61069c6004803603810190610697919061407b565b61171f565b6040516106a99190614ea8565b60405180910390f35b6106ba6117d7565b005b6106c461185f565b005b6106ce6118f8565b005b6106ea60048036038101906106e5919061407b565b611991565b6040516106f79190614a69565b60405180910390f35b610708611aef565b005b610712611b88565b60405161071f9190614a02565b60405180910390f35b610730611bb2565b60405161073d9190614aa6565b60405180910390f35b610760600480360381019061075b919061407b565b611c44565b005b61076a611d1b565b005b610786600480360381019061078191906140e8565b611db4565b005b610790611efe565b60405161079d9190614a8b565b60405180910390f35b6107c060048036038101906107bb919061422d565b611f11565b005b6107dc60048036038101906107d7919061407b565b612092565b6040516107e99190614a8b565b60405180910390f35b6107fa6120e8565b005b610804612181565b005b610820600480360381019061081b91906141aa565b61221a565b005b61083c6004803603810190610837919061407b565b61227c565b005b610858600480360381019061085391906143ac565b612353565b6040516108659190614aa6565b60405180910390f35b610876612365565b6040516108839190614a8b565b60405180910390f35b6108a660048036038101906108a191906143d9565b612378565b005b6108b06127b9565b6040516108bd9190614a8b565b60405180910390f35b6108ce6127cc565b005b6108d8612865565b6040516108e59190614aa6565b60405180910390f35b610908600480360381019061090391906140a8565b6128f7565b6040516109159190614a8b565b60405180910390f35b6109386004803603810190610933919061426d565b6129c5565b005b610942612aff565b005b61095e6004803603810190610959919061407b565b612b98565b005b60007f80ac58cd000000000000000000000000000000000000000000000000000000007bffffffffffffffffffffffffffffffffffffffffffffffffffffffff1916827bffffffffffffffffffffffffffffffffffffffffffffffffffffffff19161480610a2b57507f5b5e139f000000000000000000000000000000000000000000000000000000007bffffffffffffffffffffffffffffffffffffffffffffffffffffffff1916827bffffffffffffffffffffffffffffffffffffffffffffffffffffffff1916145b80610a3b5750610a3a82612c90565b5b9050919050565b600e8054610a4f90615137565b80601f0160208091040260200160405190810160405280929190818152602001828054610a7b90615137565b8015610ac85780601f10610a9d57610100808354040283529160200191610ac8565b820191906000526020600020905b815481529060010190602001808311610aab57829003601f168201915b505050505081565b610ad8612cfa565b73ffffffffffffffffffffffffffffffffffffffff16610af6611b88565b73ffffffffffffffffffffffffffffffffffffffff1614610b4c576040517f08c379a0000000000000000000000000000000000000000000000000000000008152600401610b4390614d88565b60405180910390fd5b6001600f60036101000a81548160ff021916908315150217905550565b606060008054610b7890615137565b80601f0160208091040260200160405190810160405280929190818152602001828054610ba490615137565b8015610bf15780601f10610bc657610100808354040283529160200191610bf1565b820191906000526020600020905b815481529060010190602001808311610bd457829003601f168201915b5050505050905090565b6000610c0682612d02565b610c45576040517f08c379a0000000000000000000000000000000000000000000000000000000008152600401610c3c90614d48565b60405180910390fd5b6004600083815260200190815260200160002060009054906101000a900473ffffffffffffffffffffffffffffffffffffffff169050919050565b600f60039054906101000a900460ff16610ccf576040517f08c379a0000000000000000000000000000000000000000000000000000000008152600401610cc690614c48565b60405180910390fd5b610cf6600a82604051610ce291906149c7565b9081526020016040518091039020546115f0565b73ffffffffffffffffffffffffffffffffffffffff163373ffffffffffffffffffffffffffffffffffffffff1614610d63576040517f08c379a0000000000000000000000000000000000000000000000000000000008152600401610d5a90614ba8565b60405180910390fd5b600073ffffffffffffffffffffffffffffffffffffffff16600b82604051610d8b91906149c7565b908152602001604051809103902060009054906101000a900473ffffffffffffffffffffffffffffffffffffffff1673ffffffffffffffffffffffffffffffffffffffff1614610e10576040517f08c379a0000000000000000000000000000000000000000000000000000000008152600401610e0790614da8565b60405180910390fd5b33600b82604051610e2191906149c7565b908152602001604051809103902060006101000a81548173ffffffffffffffffffffffffffffffffffffffff021916908373ffffffffffffffffffffffffffffffffffffffff16021790555050565b6000610e7b826115f0565b90508073ffffffffffffffffffffffffffffffffffffffff168373ffffffffffffffffffffffffffffffffffffffff161415610eec576040517f08c379a0000000000000000000000000000000000000000000000000000000008152600401610ee390614e08565b60405180910390fd5b8073ffffffffffffffffffffffffffffffffffffffff16610f0b612cfa565b73ffffffffffffffffffffffffffffffffffffffff161480610f3a5750610f3981610f34612cfa565b6128f7565b5b610f79576040517f08c379a0000000000000000000000000000000000000000000000000000000008152600401610f7090614c68565b60405180910390fd5b610f838383612d6e565b505050565b6000600882604051610f9a91906149c7565b908152602001604051809103902060009054906101000a900473ffffffffffffffffffffffffffffffffffffffff169050919050565b6060600960008381526020019081526020016000208054610ff090615137565b80601f016020809104026020016040519081016040528092919081815260200182805461101c90615137565b80156110695780601f1061103e57610100808354040283529160200191611069565b820191906000526020600020905b81548152906001019060200180831161104c57829003601f168201915b50505050509050919050565b60006110816012612e27565b905090565b61108e612cfa565b73ffffffffffffffffffffffffffffffffffffffff166110ac611b88565b73ffffffffffffffffffffffffffffffffffffffff1614611102576040517f08c379a00000000000000000000000000000000000000000000000000000000081526004016110f990614d88565b60405180910390fd5b80600e9080519060200190611118929190613e4f565b5050565b611124612cfa565b73ffffffffffffffffffffffffffffffffffffffff16611142611b88565b73ffffffffffffffffffffffffffffffffffffffff1614611198576040517f08c379a000000000000000000000000000000000000000000000000000000000815260040161118f90614d88565b60405180910390fd5b80601190805190602001906111ae929190613e4f565b5050565b6111ba612cfa565b73ffffffffffffffffffffffffffffffffffffffff166111d8611b88565b73ffffffffffffffffffffffffffffffffffffffff161461122e576040517f08c379a000000000000000000000000000000000000000000000000000000000815260040161122590614d88565b60405180910390fd5b6001600d60008373ffffffffffffffffffffffffffffffffffffffff1673ffffffffffffffffffffffffffffffffffffffff16815260200190815260200160002060006101000a81548160ff02191690831515021790555050565b61129a611294612cfa565b82612e35565b6112d9576040517f08c379a00000000000000000000000000000000000000000000000000000000081526004016112d090614e48565b60405180910390fd5b6112e4838383612f13565b505050565b6000600d60008373ffffffffffffffffffffffffffffffffffffffff1673ffffffffffffffffffffffffffffffffffffffff16815260200190815260200160002060009054906101000a900460ff169050919050565b611347612cfa565b73ffffffffffffffffffffffffffffffffffffffff16611365611b88565b73ffffffffffffffffffffffffffffffffffffffff16146113bb576040517f08c379a00000000000000000000000000000000000000000000000000000000081526004016113b290614d88565b60405180910390fd5b6000600c60008373ffffffffffffffffffffffffffffffffffffffff1673ffffffffffffffffffffffffffffffffffffffff16815260200190815260200160002060006101000a81548160ff02191690831515021790555050565b6000600a8260405161142891906149c7565b9081526020016040518091039020549050919050565b6114598383836040518060200160405280600081525061221a565b505050565b61146f611469612cfa565b82612e35565b6114ae576040517f08c379a00000000000000000000000000000000000000000000000000000000081526004016114a590614e88565b60405180910390fd5b6114b78161316f565b50565b600f60029054906101000a900460ff1681565b60008073ffffffffffffffffffffffffffffffffffffffff16600b836040516114f691906149c7565b908152602001604051809103902060009054906101000a900473ffffffffffffffffffffffffffffffffffffffff1673ffffffffffffffffffffffffffffffffffffffff1614159050919050565b61154c612cfa565b73ffffffffffffffffffffffffffffffffffffffff1661156a611b88565b73ffffffffffffffffffffffffffffffffffffffff16146115c0576040517f08c379a00000000000000000000000000000000000000000000000000000000081526004016115b790614d88565b60405180910390fd5b6001600f60046101000a81548160ff021916908315150217905550565b600f60019054906101000a900460ff1681565b6000806002600084815260200190815260200160002060009054906101000a900473ffffffffffffffffffffffffffffffffffffffff169050600073ffffffffffffffffffffffffffffffffffffffff168173ffffffffffffffffffffffffffffffffffffffff161415611699576040517f08c379a000000000000000000000000000000000000000000000000000000000815260040161169090614ca8565b60405180910390fd5b80915050919050565b6000806008836040516116b591906149c7565b908152602001604051809103902060009054906101000a900473ffffffffffffffffffffffffffffffffffffffff169050600073ffffffffffffffffffffffffffffffffffffffff168173ffffffffffffffffffffffffffffffffffffffff161415915050919050565b60008073ffffffffffffffffffffffffffffffffffffffff168273ffffffffffffffffffffffffffffffffffffffff161415611790576040517f08c379a000000000000000000000000000000000000000000000000000000000815260040161178790614c88565b60405180910390fd5b600360008373ffffffffffffffffffffffffffffffffffffffff1673ffffffffffffffffffffffffffffffffffffffff168152602001908152602001600020549050919050565b6117df612cfa565b73ffffffffffffffffffffffffffffffffffffffff166117fd611b88565b73ffffffffffffffffffffffffffffffffffffffff1614611853576040517f08c379a000000000000000000000000000000000000000000000000000000000815260040161184a90614d88565b60405180910390fd5b61185d60006131ca565b565b611867612cfa565b73ffffffffffffffffffffffffffffffffffffffff16611885611b88565b73ffffffffffffffffffffffffffffffffffffffff16146118db576040517f08c379a00000000000000000000000000000000000000000000000000000000081526004016118d290614d88565b60405180910390fd5b6001600f60026101000a81548160ff021916908315150217905550565b611900612cfa565b73ffffffffffffffffffffffffffffffffffffffff1661191e611b88565b73ffffffffffffffffffffffffffffffffffffffff1614611974576040517f08c379a000000000000000000000000000000000000000000000000000000000815260040161196b90614d88565b60405180910390fd5b6000600f60006101000a81548160ff021916908315150217905550565b6060600061199e8361171f565b905060008114156119fb57600067ffffffffffffffff8111156119c4576119c36152d0565b5b6040519080825280602002602001820160405280156119f25781602001602082028036833780820191505090505b50915050611aea565b60008167ffffffffffffffff811115611a1757611a166152d0565b5b604051908082528060200260200182016040528015611a455781602001602082028036833780820191505090505b5090506000611a52611075565b9050600080600190505b828111611ae1578673ffffffffffffffffffffffffffffffffffffffff16611a83826115f0565b73ffffffffffffffffffffffffffffffffffffffff161415611ace5780848381518110611ab357611ab26152a1565b5b6020026020010181815250508180611aca9061519a565b9250505b8080611ad99061519a565b915050611a5c565b83955050505050505b919050565b611af7612cfa565b73ffffffffffffffffffffffffffffffffffffffff16611b15611b88565b73ffffffffffffffffffffffffffffffffffffffff1614611b6b576040517f08c379a0000000000000000000000000000000000000000000000000000000008152600401611b6290614d88565b60405180910390fd5b6001600f60016101000a81548160ff021916908315150217905550565b6000600760009054906101000a900473ffffffffffffffffffffffffffffffffffffffff16905090565b606060018054611bc190615137565b80601f0160208091040260200160405190810160405280929190818152602001828054611bed90615137565b8015611c3a5780601f10611c0f57610100808354040283529160200191611c3a565b820191906000526020600020905b815481529060010190602001808311611c1d57829003601f168201915b5050505050905090565b611c4c612cfa565b73ffffffffffffffffffffffffffffffffffffffff16611c6a611b88565b73ffffffffffffffffffffffffffffffffffffffff1614611cc0576040517f08c379a0000000000000000000000000000000000000000000000000000000008152600401611cb790614d88565b60405180910390fd5b6001600c60008373ffffffffffffffffffffffffffffffffffffffff1673ffffffffffffffffffffffffffffffffffffffff16815260200190815260200160002060006101000a81548160ff02191690831515021790555050565b611d23612cfa565b73ffffffffffffffffffffffffffffffffffffffff16611d41611b88565b73ffffffffffffffffffffffffffffffffffffffff1614611d97576040517f08c379a0000000000000000000000000000000000000000000000000000000008152600401611d8e90614d88565b60405180910390fd5b6000600f60026101000a81548160ff021916908315150217905550565b600f60009054906101000a900460ff16611e03576040517f08c379a0000000000000000000000000000000000000000000000000000000008152600401611dfa90614b88565b60405180910390fd5b611e0c816116a2565b15611e4c576040517f08c379a0000000000000000000000000000000000000000000000000000000008152600401611e4390614e28565b60405180910390fd5b60011515600c60003373ffffffffffffffffffffffffffffffffffffffff1673ffffffffffffffffffffffffffffffffffffffff16815260200190815260200160002060009054906101000a900460ff16151514611edf576040517f08c379a0000000000000000000000000000000000000000000000000000000008152600401611ed690614c28565b60405180910390fd5b6000611eeb8483613290565b9050611ef8848483611289565b50505050565b600f60009054906101000a900460ff1681565b611f19612cfa565b73ffffffffffffffffffffffffffffffffffffffff168273ffffffffffffffffffffffffffffffffffffffff161415611f87576040517f08c379a0000000000000000000000000000000000000000000000000000000008152600401611f7e90614be8565b60405180910390fd5b8060056000611f94612cfa565b73ffffffffffffffffffffffffffffffffffffffff1673ffffffffffffffffffffffffffffffffffffffff16815260200190815260200160002060008473ffffffffffffffffffffffffffffffffffffffff1673ffffffffffffffffffffffffffffffffffffffff16815260200190815260200160002060006101000a81548160ff0219169083151502179055508173ffffffffffffffffffffffffffffffffffffffff16612041612cfa565b73ffffffffffffffffffffffffffffffffffffffff167f17307eab39ab6107e8899845ad3d59bd9653f200f220920489ca2b5937696c31836040516120869190614a8b565b60405180910390a35050565b6000600c60008373ffffffffffffffffffffffffffffffffffffffff1673ffffffffffffffffffffffffffffffffffffffff16815260200190815260200160002060009054906101000a900460ff169050919050565b6120f0612cfa565b73ffffffffffffffffffffffffffffffffffffffff1661210e611b88565b73ffffffffffffffffffffffffffffffffffffffff1614612164576040517f08c379a000000000000000000000000000000000000000000000000000000000815260040161215b90614d88565b60405180910390fd5b6000600f60016101000a81548160ff021916908315150217905550565b612189612cfa565b73ffffffffffffffffffffffffffffffffffffffff166121a7611b88565b73ffffffffffffffffffffffffffffffffffffffff16146121fd576040517f08c379a00000000000000000000000000000000000000000000000000000000081526004016121f490614d88565b60405180910390fd5b6000600f60036101000a81548160ff021916908315150217905550565b61222b612225612cfa565b83612e35565b61226a576040517f08c379a000000000000000000000000000000000000000000000000000000000815260040161226190614e48565b60405180910390fd5b61227684848484613408565b50505050565b612284612cfa565b73ffffffffffffffffffffffffffffffffffffffff166122a2611b88565b73ffffffffffffffffffffffffffffffffffffffff16146122f8576040517f08c379a00000000000000000000000000000000000000000000000000000000081526004016122ef90614d88565b60405180910390fd5b6000600d60008373ffffffffffffffffffffffffffffffffffffffff1673ffffffffffffffffffffffffffffffffffffffff16815260200190815260200160002060006101000a81548160ff02191690831515021790555050565b606061235e82613464565b9050919050565b600f60049054906101000a900460ff1681565b600060096000848152602001908152602001600020805461239890615137565b80601f01602080910402602001604051908101604052809291908181526020018280546123c490615137565b80156124115780601f106123e657610100808354040283529160200191612411565b820191906000526020600020905b8154815290600101906020018083116123f457829003601f168201915b50505050509050600f60049054906101000a900460ff16612467576040517f08c379a000000000000000000000000000000000000000000000000000000000815260040161245e90614ac8565b60405180910390fd5b612470826116a2565b156124b0576040517f08c379a00000000000000000000000000000000000000000000000000000000081526004016124a790614e28565b60405180910390fd5b60011515600c60003373ffffffffffffffffffffffffffffffffffffffff1673ffffffffffffffffffffffffffffffffffffffff16815260200190815260200160002060009054906101000a900460ff16151514612543576040517f08c379a000000000000000000000000000000000000000000000000000000000815260040161253a90614e68565b60405180910390fd5b3373ffffffffffffffffffffffffffffffffffffffff1660088260405161256a91906149c7565b908152602001604051809103902060009054906101000a900473ffffffffffffffffffffffffffffffffffffffff1673ffffffffffffffffffffffffffffffffffffffff16146125ef576040517f08c379a00000000000000000000000000000000000000000000000000000000081526004016125e690614b28565b60405180910390fd5b3373ffffffffffffffffffffffffffffffffffffffff1661260f846115f0565b73ffffffffffffffffffffffffffffffffffffffff1614612665576040517f08c379a000000000000000000000000000000000000000000000000000000000815260040161265c90614ae8565b60405180910390fd5b61266f83836135b6565b60088160405161267f91906149c7565b908152602001604051809103902060009054906101000a900473ffffffffffffffffffffffffffffffffffffffff166008836040516126be91906149c7565b908152602001604051809103902060006101000a81548173ffffffffffffffffffffffffffffffffffffffff021916908373ffffffffffffffffffffffffffffffffffffffff16021790555081600960008581526020019081526020016000209080519060200190612731929190613e4f565b506000600a8260405161274491906149c7565b908152602001604051809103902081905550600060088260405161276891906149c7565b908152602001604051809103902060006101000a81548173ffffffffffffffffffffffffffffffffffffffff021916908373ffffffffffffffffffffffffffffffffffffffff160217905550505050565b600f60039054906101000a900460ff1681565b6127d4612cfa565b73ffffffffffffffffffffffffffffffffffffffff166127f2611b88565b73ffffffffffffffffffffffffffffffffffffffff1614612848576040517f08c379a000000000000000000000000000000000000000000000000000000000815260040161283f90614d88565b60405180910390fd5b6001600f60006101000a81548160ff021916908315150217905550565b6060600e805461287490615137565b80601f01602080910402602001604051908101604052809291908181526020018280546128a090615137565b80156128ed5780601f106128c2576101008083540402835291602001916128ed565b820191906000526020600020905b8154815290600101906020018083116128d057829003601f168201915b5050505050905090565b600061dead73ffffffffffffffffffffffffffffffffffffffff168373ffffffffffffffffffffffffffffffffffffffff16141561293857600090506129bf565b600f60019054906101000a900460ff1680156129a4575060011515600d60008473ffffffffffffffffffffffffffffffffffffffff1673ffffffffffffffffffffffffffffffffffffffff16815260200190815260200160002060009054906101000a900460ff161515145b156129b257600190506129bf565b6129bc838361362a565b90505b92915050565b600f60009054906101000a900460ff16612a14576040517f08c379a0000000000000000000000000000000000000000000000000000000008152600401612a0b90614b88565b60405180910390fd5b612a1d816116a2565b15612a5d576040517f08c379a0000000000000000000000000000000000000000000000000000000008152600401612a5490614e28565b60405180910390fd5b60011515600c60003373ffffffffffffffffffffffffffffffffffffffff1673ffffffffffffffffffffffffffffffffffffffff16815260200190815260200160002060009054906101000a900460ff16151514612af0576040517f08c379a0000000000000000000000000000000000000000000000000000000008152600401612ae790614c28565b60405180910390fd5b612afa8282613290565b505050565b612b07612cfa565b73ffffffffffffffffffffffffffffffffffffffff16612b25611b88565b73ffffffffffffffffffffffffffffffffffffffff1614612b7b576040517f08c379a0000000000000000000000000000000000000000000000000000000008152600401612b7290614d88565b60405180910390fd5b6000600f60046101000a81548160ff021916908315150217905550565b612ba0612cfa565b73ffffffffffffffffffffffffffffffffffffffff16612bbe611b88565b73ffffffffffffffffffffffffffffffffffffffff1614612c14576040517f08c379a0000000000000000000000000000000000000000000000000000000008152600401612c0b90614d88565b60405180910390fd5b600073ffffffffffffffffffffffffffffffffffffffff168173ffffffffffffffffffffffffffffffffffffffff161415612c84576040517f08c379a0000000000000000000000000000000000000000000000000000000008152600401612c7b90614b48565b60405180910390fd5b612c8d816131ca565b50565b60007f01ffc9a7000000000000000000000000000000000000000000000000000000007bffffffffffffffffffffffffffffffffffffffffffffffffffffffff1916827bffffffffffffffffffffffffffffffffffffffffffffffffffffffff1916149050919050565b600033905090565b60008073ffffffffffffffffffffffffffffffffffffffff166002600084815260200190815260200160002060009054906101000a900473ffffffffffffffffffffffffffffffffffffffff1673ffffffffffffffffffffffffffffffffffffffff1614159050919050565b816004600083815260200190815260200160002060006101000a81548173ffffffffffffffffffffffffffffffffffffffff021916908373ffffffffffffffffffffffffffffffffffffffff160217905550808273ffffffffffffffffffffffffffffffffffffffff16612de1836115f0565b73ffffffffffffffffffffffffffffffffffffffff167f8c5be1e5ebec7d5bd14f71427d1e84f3dd0314c0f7b2291e5b200ac8c7c3b92560405160405180910390a45050565b600081600001549050919050565b6000612e4082612d02565b612e7f576040517f08c379a0000000000000000000000000000000000000000000000000000000008152600401612e7690614c08565b60405180910390fd5b6000612e8a836115f0565b90508073ffffffffffffffffffffffffffffffffffffffff168473ffffffffffffffffffffffffffffffffffffffff161480612ef957508373ffffffffffffffffffffffffffffffffffffffff16612ee184610bfb565b73ffffffffffffffffffffffffffffffffffffffff16145b80612f0a5750612f0981856128f7565b5b91505092915050565b8273ffffffffffffffffffffffffffffffffffffffff16612f33826115f0565b73ffffffffffffffffffffffffffffffffffffffff1614612f89576040517f08c379a0000000000000000000000000000000000000000000000000000000008152600401612f8090614dc8565b60405180910390fd5b600073ffffffffffffffffffffffffffffffffffffffff168273ffffffffffffffffffffffffffffffffffffffff161415612ff9576040517f08c379a0000000000000000000000000000000000000000000000000000000008152600401612ff090614bc8565b60405180910390fd5b6130048383836136be565b61300f600082612d6e565b6001600360008573ffffffffffffffffffffffffffffffffffffffff1673ffffffffffffffffffffffffffffffffffffffff168152602001908152602001600020600082825461305f919061504d565b925050819055506001600360008473ffffffffffffffffffffffffffffffffffffffff1673ffffffffffffffffffffffffffffffffffffffff16815260200190815260200160002060008282546130b69190614fc6565b92505081905550816002600083815260200190815260200160002060006101000a81548173ffffffffffffffffffffffffffffffffffffffff021916908373ffffffffffffffffffffffffffffffffffffffff160217905550808273ffffffffffffffffffffffffffffffffffffffff168473ffffffffffffffffffffffffffffffffffffffff167fddf252ad1be2c89b69c2b068fc378daa952ba7f163c4a11628f55a4df523b3ef60405160405180910390a4505050565b600f60029054906101000a900460ff166131be576040517f08c379a00000000000000000000000000000000000000000000000000000000081526004016131b590614d28565b60405180910390fd5b6131c7816136c3565b50565b6000600760009054906101000a900473ffffffffffffffffffffffffffffffffffffffff16905081600760006101000a81548173ffffffffffffffffffffffffffffffffffffffff021916908373ffffffffffffffffffffffffffffffffffffffff1602179055508173ffffffffffffffffffffffffffffffffffffffff168173ffffffffffffffffffffffffffffffffffffffff167f8be0079c531659141344cd1fd0a4f28419497f9722a3daafe3b4186f6b6457e060405160405180910390a35050565b60008060105411156132fd57600060016132aa6012612e27565b6132b49190614fc6565b90506010548111156132fb576040517f08c379a00000000000000000000000000000000000000000000000000000000081526004016132f290614d68565b60405180910390fd5b505b6133076012613716565b60006133136012612e27565b905061331f848261372c565b61332981846135b6565b8360088460405161333a91906149c7565b908152602001604051809103902060006101000a81548173ffffffffffffffffffffffffffffffffffffffff021916908373ffffffffffffffffffffffffffffffffffffffff160217905550826009600083815260200190815260200160002090805190602001906133ad929190613e4f565b5080600a846040516133bf91906149c7565b908152602001604051809103902081905550807f176b02bb2d12439ff7a20b59f402cca16c76f50508b13ef3166a600eb719354a60405160405180910390a28091505092915050565b613413848484612f13565b61341f848484846138fa565b61345e576040517f08c379a000000000000000000000000000000000000000000000000000000000815260040161345590614b08565b60405180910390fd5b50505050565b606061346f82612d02565b6134ae576040517f08c379a00000000000000000000000000000000000000000000000000000000081526004016134a590614d08565b60405180910390fd5b60006006600084815260200190815260200160002080546134ce90615137565b80601f01602080910402602001604051908101604052809291908181526020018280546134fa90615137565b80156135475780601f1061351c57610100808354040283529160200191613547565b820191906000526020600020905b81548152906001019060200180831161352a57829003601f168201915b505050505090506000613558613a91565b905060008151141561356e5781925050506135b1565b6000825111156135a357808260405160200161358b9291906149de565b604051602081830303815290604052925050506135b1565b6135ac84613b23565b925050505b919050565b6135bf82612d02565b6135fe576040517f08c379a00000000000000000000000000000000000000000000000000000000081526004016135f590614cc8565b60405180910390fd5b80600660008481526020019081526020016000209080519060200190613625929190613e4f565b505050565b6000600560008473ffffffffffffffffffffffffffffffffffffffff1673ffffffffffffffffffffffffffffffffffffffff16815260200190815260200160002060008373ffffffffffffffffffffffffffffffffffffffff1673ffffffffffffffffffffffffffffffffffffffff16815260200190815260200160002060009054906101000a900460ff16905092915050565b505050565b6136cc81613bca565b60006006600083815260200190815260200160002080546136ec90615137565b905014613713576006600082815260200190815260200160002060006137129190613ed5565b5b50565b6001816000016000828254019250508190555050565b600073ffffffffffffffffffffffffffffffffffffffff168273ffffffffffffffffffffffffffffffffffffffff16141561379c576040517f08c379a000000000000000000000000000000000000000000000000000000000815260040161379390614ce8565b60405180910390fd5b6137a581612d02565b156137e5576040517f08c379a00000000000000000000000000000000000000000000000000000000081526004016137dc90614b68565b60405180910390fd5b6137f1600083836136be565b6001600360008473ffffffffffffffffffffffffffffffffffffffff1673ffffffffffffffffffffffffffffffffffffffff16815260200190815260200160002060008282546138419190614fc6565b92505081905550816002600083815260200190815260200160002060006101000a81548173ffffffffffffffffffffffffffffffffffffffff021916908373ffffffffffffffffffffffffffffffffffffffff160217905550808273ffffffffffffffffffffffffffffffffffffffff16600073ffffffffffffffffffffffffffffffffffffffff167fddf252ad1be2c89b69c2b068fc378daa952ba7f163c4a11628f55a4df523b3ef60405160405180910390a45050565b600061391b8473ffffffffffffffffffffffffffffffffffffffff16613cdb565b15613a84578373ffffffffffffffffffffffffffffffffffffffff1663150b7a02613944612cfa565b8786866040518563ffffffff1660e01b81526004016139669493929190614a1d565b602060405180830381600087803b15801561398057600080fd5b505af19250505080156139b157506040513d601f19601f820116820180604052508101906139ae9190614336565b60015b613a34573d80600081146139e1576040519150601f19603f3d011682016040523d82523d6000602084013e6139e6565b606091505b50600081511415613a2c576040517f08c379a0000000000000000000000000000000000000000000000000000000008152600401613a2390614b08565b60405180910390fd5b805181602001fd5b63150b7a0260e01b7bffffffffffffffffffffffffffffffffffffffffffffffffffffffff1916817bffffffffffffffffffffffffffffffffffffffffffffffffffffffff191614915050613a89565b600190505b949350505050565b606060118054613aa090615137565b80601f0160208091040260200160405190810160405280929190818152602001828054613acc90615137565b8015613b195780601f10613aee57610100808354040283529160200191613b19565b820191906000526020600020905b815481529060010190602001808311613afc57829003601f168201915b5050505050905090565b6060613b2e82612d02565b613b6d576040517f08c379a0000000000000000000000000000000000000000000000000000000008152600401613b6490614de8565b60405180910390fd5b6000613b77613a91565b90506000815111613b975760405180602001604052806000815250613bc2565b80613ba184613cee565b604051602001613bb29291906149de565b6040516020818303038152906040525b915050919050565b6000613bd5826115f0565b9050613be3816000846136be565b613bee600083612d6e565b6001600360008373ffffffffffffffffffffffffffffffffffffffff1673ffffffffffffffffffffffffffffffffffffffff1681526020019081526020016000206000828254613c3e919061504d565b925050819055506002600083815260200190815260200160002060006101000a81549073ffffffffffffffffffffffffffffffffffffffff021916905581600073ffffffffffffffffffffffffffffffffffffffff168273ffffffffffffffffffffffffffffffffffffffff167fddf252ad1be2c89b69c2b068fc378daa952ba7f163c4a11628f55a4df523b3ef60405160405180910390a45050565b600080823b905060008111915050919050565b60606000821415613d36576040518060400160405280600181526020017f30000000000000000000000000000000000000000000000000000000000000008152509050613e4a565b600082905060005b60008214613d68578080613d519061519a565b915050600a82613d61919061501c565b9150613d3e565b60008167ffffffffffffffff811115613d8457613d836152d0565b5b6040519080825280601f01601f191660200182016040528015613db65781602001600182028036833780820191505090505b5090505b60008514613e4357600182613dcf919061504d565b9150600a85613dde91906151e3565b6030613dea9190614fc6565b60f81b818381518110613e0057613dff6152a1565b5b60200101907effffffffffffffffffffffffffffffffffffffffffffffffffffffffffffff1916908160001a905350600a85613e3c919061501c565b9450613dba565b8093505050505b919050565b828054613e5b90615137565b90600052602060002090601f016020900481019282613e7d5760008555613ec4565b82601f10613e9657805160ff1916838001178555613ec4565b82800160010185558215613ec4579182015b82811115613ec3578251825591602001919060010190613ea8565b5b509050613ed19190613f15565b5090565b508054613ee190615137565b6000825580601f10613ef35750613f12565b601f016020900490600052602060002090810190613f119190613f15565b5b50565b5b80821115613f2e576000816000905550600101613f16565b5090565b6000613f45613f4084614ee8565b614ec3565b905082815260208101848484011115613f6157613f60615304565b5b613f6c8482856150f5565b509392505050565b6000613f87613f8284614f19565b614ec3565b905082815260208101848484011115613fa357613fa2615304565b5b613fae8482856150f5565b509392505050565b600081359050613fc581615aed565b92915050565b600081359050613fda81615b04565b92915050565b600081359050613fef81615b1b565b92915050565b60008151905061400481615b1b565b92915050565b600082601f83011261401f5761401e6152ff565b5b813561402f848260208601613f32565b91505092915050565b600082601f83011261404d5761404c6152ff565b5b813561405d848260208601613f74565b91505092915050565b60008135905061407581615b32565b92915050565b6000602082840312156140915761409061530e565b5b600061409f84828501613fb6565b91505092915050565b600080604083850312156140bf576140be61530e565b5b60006140cd85828601613fb6565b92505060206140de85828601613fb6565b9150509250929050565b6000806000606084860312156141015761410061530e565b5b600061410f86828701613fb6565b935050602061412086828701613fb6565b925050604084013567ffffffffffffffff81111561414157614140615309565b5b61414d86828701614038565b9150509250925092565b6000806000606084860312156141705761416f61530e565b5b600061417e86828701613fb6565b935050602061418f86828701613fb6565b92505060406141a086828701614066565b9150509250925092565b600080600080608085870312156141c4576141c361530e565b5b60006141d287828801613fb6565b94505060206141e387828801613fb6565b93505060406141f487828801614066565b925050606085013567ffffffffffffffff81111561421557614214615309565b5b6142218782880161400a565b91505092959194509250565b600080604083850312156142445761424361530e565b5b600061425285828601613fb6565b925050602061426385828601613fcb565b9150509250929050565b600080604083850312156142845761428361530e565b5b600061429285828601613fb6565b925050602083013567ffffffffffffffff8111156142b3576142b2615309565b5b6142bf85828601614038565b9150509250929050565b600080604083850312156142e0576142df61530e565b5b60006142ee85828601613fb6565b92505060206142ff85828601614066565b9150509250929050565b60006020828403121561431f5761431e61530e565b5b600061432d84828501613fe0565b91505092915050565b60006020828403121561434c5761434b61530e565b5b600061435a84828501613ff5565b91505092915050565b6000602082840312156143795761437861530e565b5b600082013567ffffffffffffffff81111561439757614396615309565b5b6143a384828501614038565b91505092915050565b6000602082840312156143c2576143c161530e565b5b60006143d084828501614066565b91505092915050565b600080604083850312156143f0576143ef61530e565b5b60006143fe85828601614066565b925050602083013567ffffffffffffffff81111561441f5761441e615309565b5b61442b85828601614038565b9150509250929050565b600061444183836149a9565b60208301905092915050565b61445681615081565b82525050565b600061446782614f5a565b6144718185614f88565b935061447c83614f4a565b8060005b838110156144ad5781516144948882614435565b975061449f83614f7b565b925050600181019050614480565b5085935050505092915050565b6144c381615093565b82525050565b60006144d482614f65565b6144de8185614f99565b93506144ee818560208601615104565b6144f781615313565b840191505092915050565b600061450d82614f70565b6145178185614faa565b9350614527818560208601615104565b61453081615313565b840191505092915050565b600061454682614f70565b6145508185614fbb565b9350614560818560208601615104565b80840191505092915050565b6000614579601b83614faa565b915061458482615324565b602082019050919050565b600061459c602983614faa565b91506145a78261534d565b604082019050919050565b60006145bf603283614faa565b91506145ca8261539c565b604082019050919050565b60006145e2602583614faa565b91506145ed826153eb565b604082019050919050565b6000614605602683614faa565b91506146108261543a565b604082019050919050565b6000614628601c83614faa565b915061463382615489565b602082019050919050565b600061464b601b83614faa565b9150614656826154b2565b602082019050919050565b600061466e601d83614faa565b9150614679826154db565b602082019050919050565b6000614691602483614faa565b915061469c82615504565b604082019050919050565b60006146b4601983614faa565b91506146bf82615553565b602082019050919050565b60006146d7602c83614faa565b91506146e28261557c565b604082019050919050565b60006146fa601d83614faa565b9150614705826155cb565b602082019050919050565b600061471d601a83614faa565b9150614728826155f4565b602082019050919050565b6000614740603883614faa565b915061474b8261561d565b604082019050919050565b6000614763602a83614faa565b915061476e8261566c565b604082019050919050565b6000614786602983614faa565b9150614791826156bb565b604082019050919050565b60006147a9602e83614faa565b91506147b48261570a565b604082019050919050565b60006147cc602083614faa565b91506147d782615759565b602082019050919050565b60006147ef603183614faa565b91506147fa82615782565b604082019050919050565b6000614812601b83614faa565b915061481d826157d1565b602082019050919050565b6000614835602c83614faa565b9150614840826157fa565b604082019050919050565b6000614858601883614faa565b915061486382615849565b602082019050919050565b600061487b602083614faa565b915061488682615872565b602082019050919050565b600061489e601f83614faa565b91506148a98261589b565b602082019050919050565b60006148c1602983614faa565b91506148cc826158c4565b604082019050919050565b60006148e4602f83614faa565b91506148ef82615913565b604082019050919050565b6000614907602183614faa565b915061491282615962565b604082019050919050565b600061492a602383614faa565b9150614935826159b1565b604082019050919050565b600061494d603183614faa565b915061495882615a00565b604082019050919050565b6000614970602583614faa565b915061497b82615a4f565b604082019050919050565b6000614993603083614faa565b915061499e82615a9e565b604082019050919050565b6149b2816150eb565b82525050565b6149c1816150eb565b82525050565b60006149d3828461453b565b915081905092915050565b60006149ea828561453b565b91506149f6828461453b565b91508190509392505050565b6000602082019050614a17600083018461444d565b92915050565b6000608082019050614a32600083018761444d565b614a3f602083018661444d565b614a4c60408301856149b8565b8181036060830152614a5e81846144c9565b905095945050505050565b60006020820190508181036000830152614a83818461445c565b905092915050565b6000602082019050614aa060008301846144ba565b92915050565b60006020820190508181036000830152614ac08184614502565b905092915050565b60006020820190508181036000830152614ae18161456c565b9050919050565b60006020820190508181036000830152614b018161458f565b9050919050565b60006020820190508181036000830152614b21816145b2565b9050919050565b60006020820190508181036000830152614b41816145d5565b9050919050565b60006020820190508181036000830152614b61816145f8565b9050919050565b60006020820190508181036000830152614b818161461b565b9050919050565b60006020820190508181036000830152614ba18161463e565b9050919050565b60006020820190508181036000830152614bc181614661565b9050919050565b60006020820190508181036000830152614be181614684565b9050919050565b60006020820190508181036000830152614c01816146a7565b9050919050565b60006020820190508181036000830152614c21816146ca565b9050919050565b60006020820190508181036000830152614c41816146ed565b9050919050565b60006020820190508181036000830152614c6181614710565b9050919050565b60006020820190508181036000830152614c8181614733565b9050919050565b60006020820190508181036000830152614ca181614756565b9050919050565b60006020820190508181036000830152614cc181614779565b9050919050565b60006020820190508181036000830152614ce18161479c565b9050919050565b60006020820190508181036000830152614d01816147bf565b9050919050565b60006020820190508181036000830152614d21816147e2565b9050919050565b60006020820190508181036000830152614d4181614805565b9050919050565b60006020820190508181036000830152614d6181614828565b9050919050565b60006020820190508181036000830152614d818161484b565b9050919050565b60006020820190508181036000830152614da18161486e565b9050919050565b60006020820190508181036000830152614dc181614891565b9050919050565b60006020820190508181036000830152614de1816148b4565b9050919050565b60006020820190508181036000830152614e01816148d7565b9050919050565b60006020820190508181036000830152614e21816148fa565b9050919050565b60006020820190508181036000830152614e418161491d565b9050919050565b60006020820190508181036000830152614e6181614940565b9050919050565b60006020820190508181036000830152614e8181614963565b9050919050565b60006020820190508181036000830152614ea181614986565b9050919050565b6000602082019050614ebd60008301846149b8565b92915050565b6000614ecd614ede565b9050614ed98282615169565b919050565b6000604051905090565b600067ffffffffffffffff821115614f0357614f026152d0565b5b614f0c82615313565b9050602081019050919050565b600067ffffffffffffffff821115614f3457614f336152d0565b5b614f3d82615313565b9050602081019050919050565b6000819050602082019050919050565b600081519050919050565b600081519050919050565b600081519050919050565b6000602082019050919050565b600082825260208201905092915050565b600082825260208201905092915050565b600082825260208201905092915050565b600081905092915050565b6000614fd1826150eb565b9150614fdc836150eb565b9250827fffffffffffffffffffffffffffffffffffffffffffffffffffffffffffffffff0382111561501157615010615214565b5b828201905092915050565b6000615027826150eb565b9150615032836150eb565b92508261504257615041615243565b5b828204905092915050565b6000615058826150eb565b9150615063836150eb565b92508282101561507657615075615214565b5b828203905092915050565b600061508c826150cb565b9050919050565b60008115159050919050565b60007fffffffff0000000000000000000000000000000000000000000000000000000082169050919050565b600073ffffffffffffffffffffffffffffffffffffffff82169050919050565b6000819050919050565b82818337600083830152505050565b60005b83811015615122578082015181840152602081019050615107565b83811115615131576000848401525b50505050565b6000600282049050600182168061514f57607f821691505b6020821081141561516357615162615272565b5b50919050565b61517282615313565b810181811067ffffffffffffffff82111715615191576151906152d0565b5b80604052505050565b60006151a5826150eb565b91507fffffffffffffffffffffffffffffffffffffffffffffffffffffffffffffffff8214156151d8576151d7615214565b5b600182019050919050565b60006151ee826150eb565b91506151f9836150eb565b92508261520957615208615243565b5b828206905092915050565b7f4e487b7100000000000000000000000000000000000000000000000000000000600052601160045260246000fd5b7f4e487b7100000000000000000000000000000000000000000000000000000000600052601260045260246000fd5b7f4e487b7100000000000000000000000000000000000000000000000000000000600052602260045260246000fd5b7f4e487b7100000000000000000000000000000000000000000000000000000000600052603260045260246000fd5b7f4e487b7100000000000000000000000000000000000000000000000000000000600052604160045260246000fd5b600080fd5b600080fd5b600080fd5b600080fd5b6000601f19601f8301169050919050565b7f554d693732313a2044796e616d69632069732064697361626c65640000000000600082015250565b7f554d693732313a204d75737420626520746865206f776e657220746f2066697860008201527f206d657461646174610000000000000000000000000000000000000000000000602082015250565b7f4552433732313a207472616e7366657220746f206e6f6e20455243373231526560008201527f63656976657220696d706c656d656e7465720000000000000000000000000000602082015250565b7f554d693732313a204f6e6c792063726561746f722063616e20666978206d657460008201527f6164617461000000000000000000000000000000000000000000000000000000602082015250565b7f4f776e61626c653a206e6577206f776e657220697320746865207a65726f206160008201527f6464726573730000000000000000000000000000000000000000000000000000602082015250565b7f4552433732313a20746f6b656e20616c7265616479206d696e74656400000000600082015250565b7f554d693732313a204d696e74696e672069732064697361626c65640000000000600082015250565b7f554d693732313a20596f7520617265206e6f7420746865206f776e6572000000600082015250565b7f4552433732313a207472616e7366657220746f20746865207a65726f2061646460008201527f7265737300000000000000000000000000000000000000000000000000000000602082015250565b7f4552433732313a20617070726f766520746f2063616c6c657200000000000000600082015250565b7f4552433732313a206f70657261746f7220717565727920666f72206e6f6e657860008201527f697374656e7420746f6b656e0000000000000000000000000000000000000000602082015250565b7f554d693732313a204f6e6c79206d696e746572732063616e206d696e74000000600082015250565b7f554d693732313a2052656465656d206e6f7420656e61626c6564000000000000600082015250565b7f4552433732313a20617070726f76652063616c6c6572206973206e6f74206f7760008201527f6e6572206e6f7220617070726f76656420666f7220616c6c0000000000000000602082015250565b7f4552433732313a2062616c616e636520717565727920666f7220746865207a6560008201527f726f206164647265737300000000000000000000000000000000000000000000602082015250565b7f4552433732313a206f776e657220717565727920666f72206e6f6e657869737460008201527f656e7420746f6b656e0000000000000000000000000000000000000000000000602082015250565b7f45524337323155524953746f726167653a2055524920736574206f66206e6f6e60008201527f6578697374656e7420746f6b656e000000000000000000000000000000000000602082015250565b7f4552433732313a206d696e7420746f20746865207a65726f2061646472657373600082015250565b7f45524337323155524953746f726167653a2055524920717565727920666f722060008201527f6e6f6e6578697374656e7420746f6b656e000000000000000000000000000000602082015250565b7f554d693732313a204275726e696e672069732064697361626c65640000000000600082015250565b7f4552433732313a20617070726f76656420717565727920666f72206e6f6e657860008201527f697374656e7420746f6b656e0000000000000000000000000000000000000000602082015250565b7f554d693732313a20486172642063617020726561636865640000000000000000600082015250565b7f4f776e61626c653a2063616c6c6572206973206e6f7420746865206f776e6572600082015250565b7f554d693732313a204e465420697320616c72656164792072656465656d656400600082015250565b7f4552433732313a207472616e73666572206f6620746f6b656e2074686174206960008201527f73206e6f74206f776e0000000000000000000000000000000000000000000000602082015250565b7f4552433732314d657461646174613a2055524920717565727920666f72206e6f60008201527f6e6578697374656e7420746f6b656e0000000000000000000000000000000000602082015250565b7f4552433732313a20617070726f76616c20746f2063757272656e74206f776e6560008201527f7200000000000000000000000000000000000000000000000000000000000000602082015250565b7f554d693732313a20547279696e6720746f206d696e74206578697374656e742060008201527f6e66740000000000000000000000000000000000000000000000000000000000602082015250565b7f4552433732313a207472616e736665722063616c6c6572206973206e6f74206f60008201527f776e6572206e6f7220617070726f766564000000000000000000000000000000602082015250565b7f554d693732313a204f6e6c79206d696e746572732063616e20666978206d657460008201527f6164617461000000000000000000000000000000000000000000000000000000602082015250565b7f4552433732314275726e61626c653a2063616c6c6572206973206e6f74206f7760008201527f6e6572206e6f7220617070726f76656400000000000000000000000000000000602082015250565b615af681615081565b8114615b0157600080fd5b50565b615b0d81615093565b8114615b1857600080fd5b50565b615b248161509f565b8114615b2f57600080fd5b50565b615b3b816150eb565b8114615b4657600080fd5b5056fea2646970667358221220a901e98b5f1beab79d52edcbb4b53485307f68fcf02e8c185ba8368c6478adab64736f6c63430008060033",
  "immutableReferences": {},
  "source": "// SPDX-License-Identifier: MIT\npragma solidity ^0.8.6;\n\nimport \"@openzeppelin/contracts/token/ERC721/ERC721.sol\";\nimport \"@openzeppelin/contracts/token/ERC721/extensions/ERC721URIStorage.sol\";\nimport \"@openzeppelin/contracts/token/ERC721/extensions/ERC721Burnable.sol\";\nimport \"@openzeppelin/contracts/access/Ownable.sol\";\nimport \"@openzeppelin/contracts/utils/Counters.sol\";\n\n/**\n * @title UMi721\n * UMi721 - Base smart contract for UMi ERC-721 Standards\n */\ncontract UMi721 is ERC721, ERC721URIStorage, ERC721Burnable, Ownable {\n    mapping(string => address) private _creatorsMapping;\n    mapping(uint256 => string) private _tokenIdsMapping;\n    mapping(string => uint256) private _tokenHashToId;\n    mapping(string => address) private _redeemNftMapping;\n    mapping(address => bool) private minters;\n    mapping(address => bool) private proxies;\n    string public contract_ipfs_json;\n    bool public mintingEnabled = false;\n    bool public proxyEnabled = false;\n    bool public burningEnabled = false;\n    bool public redeemEnabled = false;\n    bool public dynamicEnabled = false;\n    uint256 hardCap = 0;\n    string private baseURI;\n    using Counters for Counters.Counter;\n    Counters.Counter private _tokenIdCounter;\n    event Minted(uint256 indexed tokenId);\n    \n    constructor(\n        string memory _name,\n        string memory _ticker,\n        string memory _contract_ipfs,\n        bool _mintingEnabled,\n        bool _proxyEnabled,\n        bool _burningEnabled,\n        bool _redeemEnabled,\n        bool _dynamicEnabled,\n        string memory _base_uri,\n        uint256 _hard_cap\n    ) ERC721(_name, _ticker) {\n        contract_ipfs_json = _contract_ipfs;\n        mintingEnabled = _mintingEnabled;\n        proxyEnabled = _proxyEnabled;\n        burningEnabled = _burningEnabled;\n        redeemEnabled = _redeemEnabled;\n        dynamicEnabled = _dynamicEnabled;\n        baseURI = _base_uri;\n        hardCap = _hard_cap;\n    }\n\n    function _baseURI() internal view override returns (string memory) {\n        return baseURI;\n    }\n\n    function tokensOfOwner(address _owner)\n        external\n        view\n        returns (uint256[] memory ownerTokens)\n    {\n        uint256 tokenCount = balanceOf(_owner);\n        if (tokenCount == 0) {\n            // Return an empty array\n            return new uint256[](0);\n        } else {\n            uint256[] memory result = new uint256[](tokenCount);\n            uint256 totalTkns = totalSupply();\n            uint256 resultIndex = 0;\n            uint256 tnkId;\n\n            for (tnkId = 1; tnkId <= totalTkns; tnkId++) {\n                if (ownerOf(tnkId) == _owner) {\n                    result[resultIndex] = tnkId;\n                    resultIndex++;\n                }\n            }\n            return result;\n        }\n    }\n\n    function _burn(uint256 _tokenId)\n        internal\n        override(ERC721, ERC721URIStorage)\n    {\n        require(burningEnabled, \"UMi721: Burning is disabled\");\n        super._burn(_tokenId);\n    }\n\n    function tokenURI(uint256 _tokenId)\n        public\n        view\n        override(ERC721, ERC721URIStorage)\n        returns (string memory)\n    {\n        return super.tokenURI(_tokenId);\n    }\n\n    function contractURI() public view returns (string memory) {\n        return contract_ipfs_json;\n    }\n\n    function nftExists(string memory tokenHash) public view returns (bool) {\n        address owner = _creatorsMapping[tokenHash];\n        return owner != address(0);\n    }\n\n    function returnTokenIdByHash(string memory tokenHash)\n        public\n        view\n        returns (uint256)\n    {\n        return _tokenHashToId[tokenHash];\n    }\n\n    function returnTokenURI(uint256 tokenId)\n        public\n        view\n        returns (string memory)\n    {\n        return _tokenIdsMapping[tokenId];\n    }\n\n    function returnCreatorByNftHash(string memory hash)\n        public\n        view\n        returns (address)\n    {\n        return _creatorsMapping[hash];\n    }\n\n    function totalSupply() public view returns (uint256) {\n        return _tokenIdCounter.current();\n    }\n\n    function isProxy(address _address) public view returns (bool) {\n        return proxies[_address];\n    }\n\n    function isMinter(address _address) public view returns (bool) {\n        return minters[_address];\n    }\n\n    function isRedeemed(string memory _tokenURI) public view returns (bool) {\n        return _redeemNftMapping[_tokenURI] != address(0);\n    }\n\n    /*\n        This method will first mint the token to the owner, then will transfer the token to the user.\n    */\n    function dropNFT(\n        address from,\n        address to,\n        string memory _tokenURI\n    ) public {\n        require(mintingEnabled, \"UMi721: Minting is disabled\");\n        require(!nftExists(_tokenURI), \"UMi721: Trying to mint existent nft\");\n        require(minters[msg.sender] == true, \"UMi721: Only minters can mint\");\n        uint256 tokenId = mintTo(from, _tokenURI);\n        super.transferFrom(from, to, tokenId);\n    }\n\n    /*\n        This method will mint the token to provided user, can be called just by the proxy address.\n    */\n    function mintNFT(address _to, string memory _tokenURI) public {\n        require(mintingEnabled, \"UMi721: Minting is disabled\");\n        require(!nftExists(_tokenURI), \"UMi721: Trying to mint existent nft\");\n        require(minters[msg.sender] == true, \"UMi721: Only minters can mint\");\n        mintTo(_to, _tokenURI);\n    }\n\n    /*\n        This method will change the metadata for provided tokenId if dynamic feature is enabled.\n    */\n    function fixNFT(uint256 _tokenId, string memory _tokenURI) public {\n        string memory _oldURI = _tokenIdsMapping[_tokenId];\n        require(dynamicEnabled, \"UMi721: Dynamic is disabled\");\n        require(!nftExists(_tokenURI), \"UMi721: Trying to mint existent nft\");\n        require(minters[msg.sender] == true, \"UMi721: Only minters can fix metadata\");\n        require(_creatorsMapping[_oldURI] == msg.sender, \"UMi721: Only creator can fix metadata\");\n        require(ownerOf(_tokenId) == msg.sender, \"UMi721: Must be the owner to fix metadata\");\n        _setTokenURI(_tokenId, _tokenURI);\n        // Creating new links\n        _creatorsMapping[_tokenURI] = _creatorsMapping[_oldURI];\n        _tokenIdsMapping[_tokenId] = _tokenURI;\n        // Resetting previous links\n        _tokenHashToId[_oldURI] = 0;\n        _creatorsMapping[_oldURI] = address(0);\n    }\n\n    /*\n        Private method that mints the token\n    */\n    function mintTo(address _to, string memory _tokenURI)\n        private\n        returns (uint256)\n    {\n        if (hardCap > 0) {\n            uint256 reached = _tokenIdCounter.current() + 1;\n            require(reached <= hardCap, \"UMi721: Hard cap reached\");\n        }\n        _tokenIdCounter.increment();\n        uint256 newTokenId = _tokenIdCounter.current();\n        _mint(_to, newTokenId);\n        _setTokenURI(newTokenId, _tokenURI);\n        _creatorsMapping[_tokenURI] = _to;\n        _tokenIdsMapping[newTokenId] = _tokenURI;\n        _tokenHashToId[_tokenURI] = newTokenId;\n        emit Minted(newTokenId);\n        return newTokenId;\n    }\n\n    /*\n        This method will allow an NFT to be redeemed\n    */\n    function redeemNFT(string memory _tokenURI) public {\n        require(redeemEnabled, \"UMi721: Redeem not enabled\");\n        require(\n            msg.sender == ownerOf(_tokenHashToId[_tokenURI]),\n            \"UMi721: You are not the owner\"\n        );\n        require(\n            _redeemNftMapping[_tokenURI] == address(0),\n            \"UMi721: NFT is already redeemed\"\n        );\n\n        _redeemNftMapping[_tokenURI] = msg.sender;\n    }\n\n    /**\n     * Admin functions\n     */\n    function enableProxy() public onlyOwner {\n        proxyEnabled = true;\n    }\n\n    function disableProxy() public onlyOwner {\n        proxyEnabled = false;\n    }\n\n    function enableRedeem() public onlyOwner {\n        redeemEnabled = true;\n    }\n\n    function disableRedeem() public onlyOwner {\n        redeemEnabled = false;\n    }\n\n    function enableMinting() public onlyOwner {\n        mintingEnabled = true;\n    }\n\n    function disableMinting() public onlyOwner {\n        mintingEnabled = false;\n    }\n\n    function enableBurning() public onlyOwner {\n        burningEnabled = true;\n    }\n\n    function disableBurning() public onlyOwner {\n        burningEnabled = false;\n    }\n\n    function enableDynamic() public onlyOwner {\n        dynamicEnabled = true;\n    }\n\n    function disableDynamic() public onlyOwner {\n        dynamicEnabled = false;\n    }\n\n    function addMinter(address _address) public onlyOwner {\n        minters[_address] = true;\n    }\n\n    function removeMinter(address _address) public onlyOwner {\n        minters[_address] = false;\n    }\n\n    function addProxy(address _address) public onlyOwner {\n        proxies[_address] = true;\n    }\n\n    function removeProxy(address _address) public onlyOwner {\n        proxies[_address] = false;\n    }\n\n    function fixContractDescription(string memory _newDescription)\n        public\n        onlyOwner\n    {\n        contract_ipfs_json = _newDescription;\n    }\n\n    function fixBaseURI(string memory _newURI) public onlyOwner {\n        baseURI = _newURI;\n    }\n\n    /**\n     * Override isApprovedForAll to whitelist proxy accounts\n     */\n    function isApprovedForAll(address _owner, address _operator)\n        public\n        view\n        override\n        returns (bool isOperator)\n    {\n        // Adding another burning address\n        if (_owner == address(0x000000000000000000000000000000000000dEaD)) {\n            return false;\n        }\n        // Approving for proxy addresses\n        if (proxyEnabled && proxies[_operator] == true) {\n            return true;\n        }\n\n        return super.isApprovedForAll(_owner, _operator);\n    }\n}\n",
  "sourcePath": "/home/turinglabs/GIT/YOMI/@umi/umi-contracts/erc-721/contracts/UMi721.sol",
  "compiler": {
    "name": "solc",
    "version": "0.8.6+commit.11564f7e.Emscripten.clang"
  },
  "schemaVersion": "3.4.3",
  "updatedAt": "2022-04-05T07:43:36.076Z",
  "networkType": "ethereum",
  "devdoc": {
    "kind": "dev",
    "methods": {
      "approve(address,uint256)": {
        "details": "See {IERC721-approve}."
      },
      "balanceOf(address)": {
        "details": "See {IERC721-balanceOf}."
      },
      "burn(uint256)": {
        "details": "Burns `tokenId`. See {ERC721-_burn}. Requirements: - The caller must own `tokenId` or be an approved operator."
      },
      "getApproved(uint256)": {
        "details": "See {IERC721-getApproved}."
      },
      "name()": {
        "details": "See {IERC721Metadata-name}."
      },
      "owner()": {
        "details": "Returns the address of the current owner."
      },
      "ownerOf(uint256)": {
        "details": "See {IERC721-ownerOf}."
      },
      "renounceOwnership()": {
        "details": "Leaves the contract without owner. It will not be possible to call `onlyOwner` functions anymore. Can only be called by the current owner. NOTE: Renouncing ownership will leave the contract without an owner, thereby removing any functionality that is only available to the owner."
      },
      "safeTransferFrom(address,address,uint256)": {
        "details": "See {IERC721-safeTransferFrom}."
      },
      "safeTransferFrom(address,address,uint256,bytes)": {
        "details": "See {IERC721-safeTransferFrom}."
      },
      "setApprovalForAll(address,bool)": {
        "details": "See {IERC721-setApprovalForAll}."
      },
      "supportsInterface(bytes4)": {
        "details": "See {IERC165-supportsInterface}."
      },
      "symbol()": {
        "details": "See {IERC721Metadata-symbol}."
      },
      "transferFrom(address,address,uint256)": {
        "details": "See {IERC721-transferFrom}."
      },
      "transferOwnership(address)": {
        "details": "Transfers ownership of the contract to a new account (`newOwner`). Can only be called by the current owner."
      }
    },
    "title": "UMi721 UMi721 - Base smart contract for UMi ERC-721 Standards",
    "version": 1
  },
  "userdoc": {
    "kind": "user",
    "methods": {
      "enableProxy()": {
        "notice": "Admin functions"
      },
      "isApprovedForAll(address,address)": {
        "notice": "Override isApprovedForAll to whitelist proxy accounts"
      }
    },
    "version": 1
  }
}